{
  "contractName": "CarbonCreditMarketplace",
  "abi": [
    {
      "inputs": [],
      "stateMutability": "nonpayable",
      "type": "constructor"
    },
    {
      "anonymous": false,
      "inputs": [
        {
          "indexed": true,
          "internalType": "address",
          "name": "orgAddress",
          "type": "address"
        },
        {
          "indexed": false,
          "internalType": "uint256",
          "name": "amount",
          "type": "uint256"
        }
      ],
      "name": "CarbonCreditsAssigned",
      "type": "event"
    },
    {
      "anonymous": false,
      "inputs": [
        {
          "indexed": true,
          "internalType": "address",
          "name": "buyer",
          "type": "address"
        },
        {
          "indexed": true,
          "internalType": "address",
          "name": "seller",
          "type": "address"
        },
        {
          "indexed": false,
          "internalType": "uint256",
          "name": "amount",
          "type": "uint256"
        }
      ],
      "name": "CarbonCreditsBought",
      "type": "event"
    },
    {
      "anonymous": false,
      "inputs": [
        {
          "indexed": true,
          "internalType": "address",
          "name": "seller",
          "type": "address"
        },
        {
          "indexed": false,
          "internalType": "uint256",
          "name": "amount",
          "type": "uint256"
        },
        {
          "indexed": false,
          "internalType": "uint256",
          "name": "offerId",
          "type": "uint256"
        }
      ],
      "name": "CarbonCreditsOffered",
      "type": "event"
    },
    {
      "anonymous": false,
      "inputs": [
        {
          "indexed": true,
          "internalType": "address",
          "name": "orgAddress",
          "type": "address"
        },
        {
          "indexed": false,
          "internalType": "string",
          "name": "name",
          "type": "string"
        }
      ],
      "name": "OrganizationRegistered",
      "type": "event"
    },
    {
      "inputs": [],
      "name": "admin",
      "outputs": [
        {
          "internalType": "address",
          "name": "",
          "type": "address"
        }
      ],
      "stateMutability": "view",
      "type": "function",
      "constant": true
    },
    {
      "inputs": [
        {
          "internalType": "uint256",
          "name": "",
          "type": "uint256"
        }
      ],
      "name": "creditOffers",
      "outputs": [
        {
          "internalType": "address",
          "name": "seller",
          "type": "address"
        },
        {
          "internalType": "uint256",
          "name": "amount",
          "type": "uint256"
        },
        {
          "internalType": "bool",
          "name": "isAvailable",
          "type": "bool"
        }
      ],
      "stateMutability": "view",
      "type": "function",
      "constant": true
    },
    {
      "inputs": [
        {
          "internalType": "address",
          "name": "",
          "type": "address"
        }
      ],
      "name": "organizations",
      "outputs": [
        {
          "internalType": "address",
          "name": "orgAddress",
          "type": "address"
        },
        {
          "internalType": "string",
          "name": "name",
          "type": "string"
        },
        {
          "internalType": "uint256",
          "name": "carbonCredits",
          "type": "uint256"
        },
        {
          "internalType": "bool",
          "name": "isRegistered",
          "type": "bool"
        }
      ],
      "stateMutability": "view",
      "type": "function",
      "constant": true
    },
    {
      "inputs": [
        {
          "internalType": "address",
          "name": "_orgAddress",
          "type": "address"
        },
        {
          "internalType": "string",
          "name": "_name",
          "type": "string"
        }
      ],
      "name": "registerOrganization",
      "outputs": [],
      "stateMutability": "nonpayable",
      "type": "function"
    },
    {
      "inputs": [
        {
          "internalType": "address",
          "name": "_orgAddress",
          "type": "address"
        },
        {
          "internalType": "uint256",
          "name": "_amount",
          "type": "uint256"
        }
      ],
      "name": "assignCarbonCredits",
      "outputs": [],
      "stateMutability": "nonpayable",
      "type": "function"
    },
    {
      "inputs": [
        {
          "internalType": "uint256",
          "name": "_amount",
          "type": "uint256"
        }
      ],
      "name": "offerCarbonCredits",
      "outputs": [],
      "stateMutability": "nonpayable",
      "type": "function"
    },
    {
      "inputs": [
        {
          "internalType": "uint256",
          "name": "_offerId",
          "type": "uint256"
        }
      ],
      "name": "buyCarbonCredits",
      "outputs": [],
      "stateMutability": "nonpayable",
      "type": "function"
    },
    {
      "inputs": [
        {
          "internalType": "address",
          "name": "_orgAddress",
          "type": "address"
        }
      ],
      "name": "getOrganizationDetails",
      "outputs": [
        {
          "internalType": "string",
          "name": "name",
          "type": "string"
        },
        {
          "internalType": "uint256",
          "name": "carbonCredits",
          "type": "uint256"
        },
        {
          "internalType": "bool",
          "name": "isRegistered",
          "type": "bool"
        }
      ],
      "stateMutability": "view",
      "type": "function",
      "constant": true
    },
    {
      "inputs": [],
      "name": "getAvailableOffers",
      "outputs": [
        {
          "components": [
            {
              "internalType": "address",
              "name": "seller",
              "type": "address"
            },
            {
              "internalType": "uint256",
              "name": "amount",
              "type": "uint256"
            },
            {
              "internalType": "bool",
              "name": "isAvailable",
              "type": "bool"
            }
          ],
          "internalType": "struct CarbonCreditMarketplace.CreditOffer[]",
          "name": "",
          "type": "tuple[]"
        }
      ],
      "stateMutability": "view",
      "type": "function",
      "constant": true
    }
  ],
  "bytecode": "0x608060405234801561001057600080fd5b50336000806101000a81548173ffffffffffffffffffffffffffffffffffffffff021916908373ffffffffffffffffffffffffffffffffffffffff160217905550611c7d806100606000396000f3fe608060405234801561001057600080fd5b50600436106100935760003560e01c80636ba6ea03116100665780636ba6ea031461014b578063811f795414610169578063c5666a0514610185578063c9128b09146101a1578063f851a440146101bd57610093565b806328899afd14610098578063330be2e9146100ca5780635a1f7406146100e657806361ba81d814610119575b600080fd5b6100b260048036038101906100ad919061114e565b6101db565b6040516100c1939291906111e6565b60405180910390f35b6100e460048036038101906100df9190611249565b610242565b005b61010060048036038101906100fb9190611289565b61040a565b604051610110949392919061134f565b60405180910390f35b610133600480360381019061012e9190611289565b6104ef565b6040516101429392919061139b565b60405180910390f35b61015361066c565b60405161016091906114f7565b60405180910390f35b610183600480360381019061017e919061114e565b61086d565b005b61019f600480360381019061019a919061114e565b610b10565b005b6101bb60048036038101906101b6919061164e565b610d89565b005b6101c5611004565b6040516101d291906116aa565b60405180910390f35b600281815481106101eb57600080fd5b90600052602060002090600302016000915090508060000160009054906101000a900473ffffffffffffffffffffffffffffffffffffffff16908060010154908060020160009054906101000a900460ff16905083565b60008054906101000a900473ffffffffffffffffffffffffffffffffffffffff1673ffffffffffffffffffffffffffffffffffffffff163373ffffffffffffffffffffffffffffffffffffffff16146102d0576040517f08c379a00000000000000000000000000000000000000000000000000000000081526004016102c790611737565b60405180910390fd5b600160008373ffffffffffffffffffffffffffffffffffffffff1673ffffffffffffffffffffffffffffffffffffffff16815260200190815260200160002060030160009054906101000a900460ff1661035f576040517f08c379a0000000000000000000000000000000000000000000000000000000008152600401610356906117a3565b60405180910390fd5b80600160008473ffffffffffffffffffffffffffffffffffffffff1673ffffffffffffffffffffffffffffffffffffffff16815260200190815260200160002060020160008282546103b191906117f2565b925050819055508173ffffffffffffffffffffffffffffffffffffffff167fe742632f6b4e373dffb5bcffbaaf890d25a7280635b2494d3f8a558101674e9b826040516103fe9190611848565b60405180910390a25050565b60016020528060005260406000206000915090508060000160009054906101000a900473ffffffffffffffffffffffffffffffffffffffff169080600101805461045390611892565b80601f016020809104026020016040519081016040528092919081815260200182805461047f90611892565b80156104cc5780601f106104a1576101008083540402835291602001916104cc565b820191906000526020600020905b8154815290600101906020018083116104af57829003601f168201915b5050505050908060020154908060030160009054906101000a900460ff16905084565b60606000806000600160008673ffffffffffffffffffffffffffffffffffffffff1673ffffffffffffffffffffffffffffffffffffffff1681526020019081526020016000206040518060800160405290816000820160009054906101000a900473ffffffffffffffffffffffffffffffffffffffff1673ffffffffffffffffffffffffffffffffffffffff1673ffffffffffffffffffffffffffffffffffffffff1681526020016001820180546105a690611892565b80601f01602080910402602001604051908101604052809291908181526020018280546105d290611892565b801561061f5780601f106105f45761010080835404028352916020019161061f565b820191906000526020600020905b81548152906001019060200180831161060257829003601f168201915b50505050508152602001600282015481526020016003820160009054906101000a900460ff1615151515815250509050806020015181604001518260600151935093509350509193909250565b60606000805b6002805490508110156106d95760028181548110610693576106926118c3565b5b906000526020600020906003020160020160009054906101000a900460ff16156106c65781806106c2906118f2565b9250505b80806106d1906118f2565b915050610672565b5060008167ffffffffffffffff8111156106f6576106f5611523565b5b60405190808252806020026020018201604052801561072f57816020015b61071c611028565b8152602001906001900390816107145790505b5090506000805b6002805490508110156108635760028181548110610757576107566118c3565b5b906000526020600020906003020160020160009054906101000a900460ff1615610850576002818154811061078f5761078e6118c3565b5b90600052602060002090600302016040518060600160405290816000820160009054906101000a900473ffffffffffffffffffffffffffffffffffffffff1673ffffffffffffffffffffffffffffffffffffffff1673ffffffffffffffffffffffffffffffffffffffff168152602001600182015481526020016002820160009054906101000a900460ff161515151581525050838381518110610836576108356118c3565b5b6020026020010181905250818061084c906118f2565b9250505b808061085b906118f2565b915050610736565b5081935050505090565b600160003373ffffffffffffffffffffffffffffffffffffffff1673ffffffffffffffffffffffffffffffffffffffff16815260200190815260200160002060030160009054906101000a900460ff166108fc576040517f08c379a00000000000000000000000000000000000000000000000000000000081526004016108f3906119ac565b60405180910390fd5b80600160003373ffffffffffffffffffffffffffffffffffffffff1673ffffffffffffffffffffffffffffffffffffffff168152602001908152602001600020600201541015610981576040517f08c379a000000000000000000000000000000000000000000000000000000000815260040161097890611a3e565b60405180910390fd5b80600160003373ffffffffffffffffffffffffffffffffffffffff1673ffffffffffffffffffffffffffffffffffffffff16815260200190815260200160002060020160008282546109d39190611a5e565b92505081905550600260405180606001604052803373ffffffffffffffffffffffffffffffffffffffff16815260200183815260200160011515815250908060018154018082558091505060019003906000526020600020906003020160009091909190915060008201518160000160006101000a81548173ffffffffffffffffffffffffffffffffffffffff021916908373ffffffffffffffffffffffffffffffffffffffff1602179055506020820151816001015560408201518160020160006101000a81548160ff02191690831515021790555050503373ffffffffffffffffffffffffffffffffffffffff167f2acdd9c40c46f544fef416ab316cdd35f98f9cc1d743129d461cc64bf92568bb826001600280549050610af79190611a5e565b604051610b05929190611a92565b60405180910390a250565b600160003373ffffffffffffffffffffffffffffffffffffffff1673ffffffffffffffffffffffffffffffffffffffff16815260200190815260200160002060030160009054906101000a900460ff16610b9f576040517f08c379a0000000000000000000000000000000000000000000000000000000008152600401610b96906119ac565b60405180910390fd5b6002805490508110610be6576040517f08c379a0000000000000000000000000000000000000000000000000000000008152600401610bdd90611b07565b60405180910390fd5b60028181548110610bfa57610bf96118c3565b5b906000526020600020906003020160020160009054906101000a900460ff16610c58576040517f08c379a0000000000000000000000000000000000000000000000000000000008152600401610c4f90611b73565b60405180910390fd5b600060028281548110610c6e57610c6d6118c3565b5b906000526020600020906003020190508060010154600160003373ffffffffffffffffffffffffffffffffffffffff1673ffffffffffffffffffffffffffffffffffffffff1681526020019081526020016000206002016000828254610cd491906117f2565b9250508190555060008160020160006101000a81548160ff0219169083151502179055508060000160009054906101000a900473ffffffffffffffffffffffffffffffffffffffff1673ffffffffffffffffffffffffffffffffffffffff163373ffffffffffffffffffffffffffffffffffffffff167fefe1757e4d01417c4031b940f8bdd3abd57cfbaa3f11e9b613710eb08099a8a48360010154604051610d7d9190611848565b60405180910390a35050565b60008054906101000a900473ffffffffffffffffffffffffffffffffffffffff1673ffffffffffffffffffffffffffffffffffffffff163373ffffffffffffffffffffffffffffffffffffffff1614610e17576040517f08c379a0000000000000000000000000000000000000000000000000000000008152600401610e0e90611737565b60405180910390fd5b600160008373ffffffffffffffffffffffffffffffffffffffff1673ffffffffffffffffffffffffffffffffffffffff16815260200190815260200160002060030160009054906101000a900460ff1615610ea7576040517f08c379a0000000000000000000000000000000000000000000000000000000008152600401610e9e90611c05565b60405180910390fd5b60405180608001604052808373ffffffffffffffffffffffffffffffffffffffff1681526020018281526020016000815260200160011515815250600160008473ffffffffffffffffffffffffffffffffffffffff1673ffffffffffffffffffffffffffffffffffffffff16815260200190815260200160002060008201518160000160006101000a81548173ffffffffffffffffffffffffffffffffffffffff021916908373ffffffffffffffffffffffffffffffffffffffff1602179055506020820151816001019080519060200190610f84929190611061565b506040820151816002015560608201518160030160006101000a81548160ff0219169083151502179055509050508173ffffffffffffffffffffffffffffffffffffffff167f783e607e94efcb9adce3489c806008ddc378d784ae22a1f801458720054325a282604051610ff89190611c25565b60405180910390a25050565b60008054906101000a900473ffffffffffffffffffffffffffffffffffffffff1681565b6040518060600160405280600073ffffffffffffffffffffffffffffffffffffffff168152602001600081526020016000151581525090565b82805461106d90611892565b90600052602060002090601f01602090048101928261108f57600085556110d6565b82601f106110a857805160ff19168380011785556110d6565b828001600101855582156110d6579182015b828111156110d55782518255916020019190600101906110ba565b5b5090506110e391906110e7565b5090565b5b808211156111005760008160009055506001016110e8565b5090565b6000604051905090565b600080fd5b600080fd5b6000819050919050565b61112b81611118565b811461113657600080fd5b50565b60008135905061114881611122565b92915050565b6000602082840312156111645761116361110e565b5b600061117284828501611139565b91505092915050565b600073ffffffffffffffffffffffffffffffffffffffff82169050919050565b60006111a68261117b565b9050919050565b6111b68161119b565b82525050565b6111c581611118565b82525050565b60008115159050919050565b6111e0816111cb565b82525050565b60006060820190506111fb60008301866111ad565b61120860208301856111bc565b61121560408301846111d7565b949350505050565b6112268161119b565b811461123157600080fd5b50565b6000813590506112438161121d565b92915050565b600080604083850312156112605761125f61110e565b5b600061126e85828601611234565b925050602061127f85828601611139565b9150509250929050565b60006020828403121561129f5761129e61110e565b5b60006112ad84828501611234565b91505092915050565b600081519050919050565b600082825260208201905092915050565b60005b838110156112f05780820151818401526020810190506112d5565b838111156112ff576000848401525b50505050565b6000601f19601f8301169050919050565b6000611321826112b6565b61132b81856112c1565b935061133b8185602086016112d2565b61134481611305565b840191505092915050565b600060808201905061136460008301876111ad565b81810360208301526113768186611316565b905061138560408301856111bc565b61139260608301846111d7565b95945050505050565b600060608201905081810360008301526113b58186611316565b90506113c460208301856111bc565b6113d160408301846111d7565b949350505050565b600081519050919050565b600082825260208201905092915050565b6000819050602082019050919050565b61140e8161119b565b82525050565b61141d81611118565b82525050565b61142c816111cb565b82525050565b6060820160008201516114486000850182611405565b50602082015161145b6020850182611414565b50604082015161146e6040850182611423565b50505050565b60006114808383611432565b60608301905092915050565b6000602082019050919050565b60006114a4826113d9565b6114ae81856113e4565b93506114b9836113f5565b8060005b838110156114ea5781516114d18882611474565b97506114dc8361148c565b9250506001810190506114bd565b5085935050505092915050565b600060208201905081810360008301526115118184611499565b905092915050565b600080fd5b600080fd5b7f4e487b7100000000000000000000000000000000000000000000000000000000600052604160045260246000fd5b61155b82611305565b810181811067ffffffffffffffff8211171561157a57611579611523565b5b80604052505050565b600061158d611104565b90506115998282611552565b919050565b600067ffffffffffffffff8211156115b9576115b8611523565b5b6115c282611305565b9050602081019050919050565b82818337600083830152505050565b60006115f16115ec8461159e565b611583565b90508281526020810184848401111561160d5761160c61151e565b5b6116188482856115cf565b509392505050565b600082601f83011261163557611634611519565b5b81356116458482602086016115de565b91505092915050565b600080604083850312156116655761166461110e565b5b600061167385828601611234565b925050602083013567ffffffffffffffff81111561169457611693611113565b5b6116a085828601611620565b9150509250929050565b60006020820190506116bf60008301846111ad565b92915050565b7f4f6e6c792061646d696e2063616e20706572666f726d2074686973206163746960008201527f6f6e000000000000000000000000000000000000000000000000000000000000602082015250565b60006117216022836112c1565b915061172c826116c5565b604082019050919050565b6000602082019050818103600083015261175081611714565b9050919050565b7f4f7267616e697a6174696f6e206973206e6f7420726567697374657265640000600082015250565b600061178d601e836112c1565b915061179882611757565b602082019050919050565b600060208201905081810360008301526117bc81611780565b9050919050565b7f4e487b7100000000000000000000000000000000000000000000000000000000600052601160045260246000fd5b60006117fd82611118565b915061180883611118565b9250827fffffffffffffffffffffffffffffffffffffffffffffffffffffffffffffffff0382111561183d5761183c6117c3565b5b828201905092915050565b600060208201905061185d60008301846111bc565b92915050565b7f4e487b7100000000000000000000000000000000000000000000000000000000600052602260045260246000fd5b600060028204905060018216806118aa57607f821691505b6020821081036118bd576118bc611863565b5b50919050565b7f4e487b7100000000000000000000000000000000000000000000000000000000600052603260045260246000fd5b60006118fd82611118565b91507fffffffffffffffffffffffffffffffffffffffffffffffffffffffffffffffff820361192f5761192e6117c3565b5b600182019050919050565b7f4f6e6c792072656769737465726564206f7267616e697a6174696f6e7320636160008201527f6e20706572666f726d207468697320616374696f6e0000000000000000000000602082015250565b60006119966035836112c1565b91506119a18261193a565b604082019050919050565b600060208201905081810360008301526119c581611989565b9050919050565b7f4e6f7420656e6f75676820636172626f6e206372656469747320746f206f666660008201527f6572000000000000000000000000000000000000000000000000000000000000602082015250565b6000611a286022836112c1565b9150611a33826119cc565b604082019050919050565b60006020820190508181036000830152611a5781611a1b565b9050919050565b6000611a6982611118565b9150611a7483611118565b925082821015611a8757611a866117c3565b5b828203905092915050565b6000604082019050611aa760008301856111bc565b611ab460208301846111bc565b9392505050565b7f496e76616c6964206f6666657220494400000000000000000000000000000000600082015250565b6000611af16010836112c1565b9150611afc82611abb565b602082019050919050565b60006020820190508181036000830152611b2081611ae4565b9050919050565b7f4f66666572206973206e6f7420617661696c61626c6500000000000000000000600082015250565b6000611b5d6016836112c1565b9150611b6882611b27565b602082019050919050565b60006020820190508181036000830152611b8c81611b50565b9050919050565b7f4f7267616e697a6174696f6e20697320616c726561647920726567697374657260008201527f6564000000000000000000000000000000000000000000000000000000000000602082015250565b6000611bef6022836112c1565b9150611bfa82611b93565b604082019050919050565b60006020820190508181036000830152611c1e81611be2565b9050919050565b60006020820190508181036000830152611c3f8184611316565b90509291505056fea2646970667358221220941c15cb2626d00abc7effb507b3bdd83cdb68183beda32dd7b30d18a304080864736f6c634300080d0033",
  "immutableReferences": {},
  "source": "// SPDX-License-Identifier: MIT\r\npragma solidity >=0.4.22 <0.9.0;\r\n\r\ncontract CarbonCreditMarketplace {\r\n    address public admin;\r\n\r\n    struct Organization {\r\n        address orgAddress;\r\n        string name;\r\n        uint256 carbonCredits;\r\n        bool isRegistered;\r\n    }\r\n\r\n    struct CreditOffer {\r\n        address seller;\r\n        uint256 amount;\r\n        bool isAvailable;\r\n    }\r\n\r\n    mapping(address => Organization) public organizations;\r\n    CreditOffer[] public creditOffers;\r\n\r\n    event OrganizationRegistered(address indexed orgAddress, string name);\r\n    event CarbonCreditsAssigned(address indexed orgAddress, uint256 amount);\r\n    event CarbonCreditsOffered(address indexed seller, uint256 amount, uint256 offerId);\r\n    event CarbonCreditsBought(address indexed buyer, address indexed seller, uint256 amount);\r\n\r\n    modifier onlyAdmin() {\r\n        require(msg.sender == admin, \"Only admin can perform this action\");\r\n        _;\r\n    }\r\n\r\n    modifier onlyRegisteredOrganization() {\r\n        require(organizations[msg.sender].isRegistered, \"Only registered organizations can perform this action\");\r\n        _;\r\n    }\r\n\r\n    constructor() {\r\n        admin = msg.sender;\r\n    }\r\n\r\n    function registerOrganization(address _orgAddress, string memory _name) public onlyAdmin {\r\n        require(!organizations[_orgAddress].isRegistered, \"Organization is already registered\");\r\n\r\n        organizations[_orgAddress] = Organization({\r\n            orgAddress: _orgAddress,\r\n            name: _name,\r\n            carbonCredits: 0,\r\n            isRegistered: true\r\n        });\r\n\r\n        emit OrganizationRegistered(_orgAddress, _name);\r\n    }\r\n\r\n    function assignCarbonCredits(address _orgAddress, uint256 _amount) public onlyAdmin {\r\n        require(organizations[_orgAddress].isRegistered, \"Organization is not registered\");\r\n\r\n        organizations[_orgAddress].carbonCredits += _amount;\r\n\r\n        emit CarbonCreditsAssigned(_orgAddress, _amount);\r\n    }\r\n\r\n    function offerCarbonCredits(uint256 _amount) public onlyRegisteredOrganization {\r\n        require(organizations[msg.sender].carbonCredits >= _amount, \"Not enough carbon credits to offer\");\r\n\r\n        organizations[msg.sender].carbonCredits -= _amount;\r\n        creditOffers.push(CreditOffer({\r\n            seller: msg.sender,\r\n            amount: _amount,\r\n            isAvailable: true\r\n        }));\r\n\r\n        emit CarbonCreditsOffered(msg.sender, _amount, creditOffers.length - 1);\r\n    }\r\n\r\n    function buyCarbonCredits(uint256 _offerId) public onlyRegisteredOrganization {\r\n        require(_offerId < creditOffers.length, \"Invalid offer ID\");\r\n        require(creditOffers[_offerId].isAvailable, \"Offer is not available\");\r\n\r\n        CreditOffer storage offer = creditOffers[_offerId];\r\n\r\n        organizations[msg.sender].carbonCredits += offer.amount;\r\n        offer.isAvailable = false;\r\n\r\n        emit CarbonCreditsBought(msg.sender, offer.seller, offer.amount);\r\n    }\r\n\r\n    function getOrganizationDetails(address _orgAddress) public view returns (string memory name, uint256 carbonCredits, bool isRegistered) {\r\n        Organization memory org = organizations[_orgAddress];\r\n        return (org.name, org.carbonCredits, org.isRegistered);\r\n    }\r\n\r\n    function getAvailableOffers() public view returns (CreditOffer[] memory) {\r\n        uint256 availableCount = 0;\r\n        for (uint256 i = 0; i < creditOffers.length; i++) {\r\n            if (creditOffers[i].isAvailable) {\r\n                availableCount++;\r\n            }\r\n        }\r\n\r\n        CreditOffer[] memory availableOffers = new CreditOffer[](availableCount);\r\n        uint256 index = 0;\r\n        for (uint256 i = 0; i < creditOffers.length; i++) {\r\n            if (creditOffers[i].isAvailable) {\r\n                availableOffers[index] = creditOffers[i];\r\n                index++;\r\n            }\r\n        }\r\n\r\n        return availableOffers;\r\n    }\r\n}\r\n",
  "sourcePath": "C:\\Users\\jugan\\Desktop\\Hack4Bengal\\contracts\\CarbonCreditMarketplace.sol",
  "compiler": {
    "name": "solc",
    "version": "0.8.13+commit.abaa5c0e.Emscripten.clang"
  },
  "schemaVersion": "3.4.16",
  "updatedAt": "2024-06-28T21:30:27.263Z",
  "networkType": "ethereum",
  "devdoc": {
    "kind": "dev",
    "methods": {},
    "version": 1
  },
  "userdoc": {
    "kind": "user",
    "methods": {},
    "version": 1
  }
}