{
  "contractName": "CarbonCreditMarketplace",
  "abi": [
    {
      "inputs": [],
      "stateMutability": "nonpayable",
      "type": "constructor"
    },
    {
      "anonymous": false,
      "inputs": [
        {
          "indexed": true,
          "internalType": "address",
          "name": "orgAddress",
          "type": "address"
        },
        {
          "indexed": false,
          "internalType": "uint256",
          "name": "amount",
          "type": "uint256"
        }
      ],
      "name": "CarbonCreditsAssigned",
      "type": "event"
    },
    {
      "anonymous": false,
      "inputs": [
        {
          "indexed": true,
          "internalType": "address",
          "name": "buyer",
          "type": "address"
        },
        {
          "indexed": true,
          "internalType": "address",
          "name": "seller",
          "type": "address"
        },
        {
          "indexed": false,
          "internalType": "uint256",
          "name": "amount",
          "type": "uint256"
        }
      ],
      "name": "CarbonCreditsBought",
      "type": "event"
    },
    {
      "anonymous": false,
      "inputs": [
        {
          "indexed": true,
          "internalType": "address",
          "name": "seller",
          "type": "address"
        },
        {
          "indexed": false,
          "internalType": "uint256",
          "name": "amount",
          "type": "uint256"
        },
        {
          "indexed": false,
          "internalType": "uint256",
          "name": "offerId",
          "type": "uint256"
        }
      ],
      "name": "CarbonCreditsOffered",
      "type": "event"
    },
    {
      "anonymous": false,
      "inputs": [
        {
          "indexed": true,
          "internalType": "address",
          "name": "orgAddress",
          "type": "address"
        },
        {
          "indexed": false,
          "internalType": "string",
          "name": "name",
          "type": "string"
        }
      ],
      "name": "OrganizationRegistered",
      "type": "event"
    },
    {
      "inputs": [],
      "name": "admin",
      "outputs": [
        {
          "internalType": "address",
          "name": "",
          "type": "address"
        }
      ],
      "stateMutability": "view",
      "type": "function"
    },
    {
      "inputs": [
        {
          "internalType": "uint256",
          "name": "",
          "type": "uint256"
        }
      ],
      "name": "creditOffers",
      "outputs": [
        {
          "internalType": "address",
          "name": "seller",
          "type": "address"
        },
        {
          "internalType": "uint256",
          "name": "amount",
          "type": "uint256"
        },
        {
          "internalType": "bool",
          "name": "isAvailable",
          "type": "bool"
        }
      ],
      "stateMutability": "view",
      "type": "function"
    },
    {
      "inputs": [
        {
          "internalType": "address",
          "name": "",
          "type": "address"
        }
      ],
      "name": "organizations",
      "outputs": [
        {
          "internalType": "address",
          "name": "orgAddress",
          "type": "address"
        },
        {
          "internalType": "string",
          "name": "name",
          "type": "string"
        },
        {
          "internalType": "uint256",
          "name": "carbonCredits",
          "type": "uint256"
        },
        {
          "internalType": "bool",
          "name": "isRegistered",
          "type": "bool"
        }
      ],
      "stateMutability": "view",
      "type": "function"
    },
    {
      "inputs": [
        {
          "internalType": "address",
          "name": "_orgAddress",
          "type": "address"
        },
        {
          "internalType": "string",
          "name": "_name",
          "type": "string"
        }
      ],
      "name": "registerOrganization",
      "outputs": [],
      "stateMutability": "nonpayable",
      "type": "function"
    },
    {
      "inputs": [
        {
          "internalType": "address",
          "name": "_orgAddress",
          "type": "address"
        },
        {
          "internalType": "uint256",
          "name": "_amount",
          "type": "uint256"
        }
      ],
      "name": "assignCarbonCredits",
      "outputs": [],
      "stateMutability": "nonpayable",
      "type": "function"
    },
    {
      "inputs": [
        {
          "internalType": "uint256",
          "name": "_amount",
          "type": "uint256"
        }
      ],
      "name": "offerCarbonCredits",
      "outputs": [],
      "stateMutability": "nonpayable",
      "type": "function"
    },
    {
      "inputs": [
        {
          "internalType": "uint256",
          "name": "_offerId",
          "type": "uint256"
        }
      ],
      "name": "buyCarbonCredits",
      "outputs": [],
      "stateMutability": "nonpayable",
      "type": "function"
    },
    {
      "inputs": [
        {
          "internalType": "address",
          "name": "_orgAddress",
          "type": "address"
        }
      ],
      "name": "getOrganizationDetails",
      "outputs": [
        {
          "internalType": "string",
          "name": "name",
          "type": "string"
        },
        {
          "internalType": "uint256",
          "name": "carbonCredits",
          "type": "uint256"
        },
        {
          "internalType": "bool",
          "name": "isRegistered",
          "type": "bool"
        }
      ],
      "stateMutability": "view",
      "type": "function"
    },
    {
      "inputs": [],
      "name": "getAvailableOffers",
      "outputs": [
        {
          "components": [
            {
              "internalType": "address",
              "name": "seller",
              "type": "address"
            },
            {
              "internalType": "uint256",
              "name": "amount",
              "type": "uint256"
            },
            {
              "internalType": "bool",
              "name": "isAvailable",
              "type": "bool"
            }
          ],
          "internalType": "struct CarbonCreditMarketplace.CreditOffer[]",
          "name": "",
          "type": "tuple[]"
        }
      ],
      "stateMutability": "view",
      "type": "function"
    }
  ],
  "bytecode": "0x608060405234801561000f575f80fd5b50335f806101000a81548173ffffffffffffffffffffffffffffffffffffffff021916908373ffffffffffffffffffffffffffffffffffffffff160217905550611d558061005c5f395ff3fe608060405234801561000f575f80fd5b5060043610610091575f3560e01c80636ba6ea03116100645780636ba6ea0314610148578063811f795414610166578063c5666a0514610182578063c9128b091461019e578063f851a440146101ba57610091565b806328899afd14610095578063330be2e9146100c75780635a1f7406146100e357806361ba81d814610116575b5f80fd5b6100af60048036038101906100aa9190611040565b6101d8565b6040516100be939291906110d3565b60405180910390f35b6100e160048036038101906100dc9190611132565b610238565b005b6100fd60048036038101906100f89190611170565b6103f9565b60405161010d9493929190611225565b60405180910390f35b610130600480360381019061012b9190611170565b6104d6565b60405161013f9392919061126f565b60405180910390f35b61015061064a565b60405161015d91906113c0565b60405180910390f35b610180600480360381019061017b9190611040565b61083d565b005b61019c60048036038101906101979190611040565b610ad1565b005b6101b860048036038101906101b3919061150c565b610d3a565b005b6101c2610fa3565b6040516101cf9190611566565b60405180910390f35b600281815481106101e7575f80fd5b905f5260205f2090600302015f91509050805f015f9054906101000a900473ffffffffffffffffffffffffffffffffffffffff1690806001015490806002015f9054906101000a900460ff16905083565b5f8054906101000a900473ffffffffffffffffffffffffffffffffffffffff1673ffffffffffffffffffffffffffffffffffffffff163373ffffffffffffffffffffffffffffffffffffffff16146102c5576040517f08c379a00000000000000000000000000000000000000000000000000000000081526004016102bc906115ef565b60405180910390fd5b60015f8373ffffffffffffffffffffffffffffffffffffffff1673ffffffffffffffffffffffffffffffffffffffff1681526020019081526020015f206003015f9054906101000a900460ff16610351576040517f08c379a000000000000000000000000000000000000000000000000000000000815260040161034890611657565b60405180910390fd5b8060015f8473ffffffffffffffffffffffffffffffffffffffff1673ffffffffffffffffffffffffffffffffffffffff1681526020019081526020015f206002015f8282546103a091906116a2565b925050819055508173ffffffffffffffffffffffffffffffffffffffff167fe742632f6b4e373dffb5bcffbaaf890d25a7280635b2494d3f8a558101674e9b826040516103ed91906116d5565b60405180910390a25050565b6001602052805f5260405f205f91509050805f015f9054906101000a900473ffffffffffffffffffffffffffffffffffffffff169080600101805461043d9061171b565b80601f01602080910402602001604051908101604052809291908181526020018280546104699061171b565b80156104b45780601f1061048b576101008083540402835291602001916104b4565b820191905f5260205f20905b81548152906001019060200180831161049757829003601f168201915b505050505090806002015490806003015f9054906101000a900460ff16905084565b60605f805f60015f8673ffffffffffffffffffffffffffffffffffffffff1673ffffffffffffffffffffffffffffffffffffffff1681526020019081526020015f206040518060800160405290815f82015f9054906101000a900473ffffffffffffffffffffffffffffffffffffffff1673ffffffffffffffffffffffffffffffffffffffff1673ffffffffffffffffffffffffffffffffffffffff1681526020016001820180546105879061171b565b80601f01602080910402602001604051908101604052809291908181526020018280546105b39061171b565b80156105fe5780601f106105d5576101008083540402835291602001916105fe565b820191905f5260205f20905b8154815290600101906020018083116105e157829003601f168201915b5050505050815260200160028201548152602001600382015f9054906101000a900460ff1615151515815250509050806020015181604001518260600151935093509350509193909250565b60605f805b6002805490508110156106b357600281815481106106705761066f61174b565b5b905f5260205f2090600302016002015f9054906101000a900460ff16156106a057818061069c90611778565b9250505b80806106ab90611778565b91505061064f565b505f8167ffffffffffffffff8111156106cf576106ce6113e8565b5b60405190808252806020026020018201604052801561070857816020015b6106f5610fc6565b8152602001906001900390816106ed5790505b5090505f805b600280549050811015610833576002818154811061072f5761072e61174b565b5b905f5260205f2090600302016002015f9054906101000a900460ff161561082057600281815481106107645761076361174b565b5b905f5260205f2090600302016040518060600160405290815f82015f9054906101000a900473ffffffffffffffffffffffffffffffffffffffff1673ffffffffffffffffffffffffffffffffffffffff1673ffffffffffffffffffffffffffffffffffffffff16815260200160018201548152602001600282015f9054906101000a900460ff1615151515815250508383815181106108065761080561174b565b5b6020026020010181905250818061081c90611778565b9250505b808061082b90611778565b91505061070e565b5081935050505090565b60015f3373ffffffffffffffffffffffffffffffffffffffff1673ffffffffffffffffffffffffffffffffffffffff1681526020019081526020015f206003015f9054906101000a900460ff166108c9576040517f08c379a00000000000000000000000000000000000000000000000000000000081526004016108c09061182f565b60405180910390fd5b8060015f3373ffffffffffffffffffffffffffffffffffffffff1673ffffffffffffffffffffffffffffffffffffffff1681526020019081526020015f2060020154101561094c576040517f08c379a0000000000000000000000000000000000000000000000000000000008152600401610943906118bd565b60405180910390fd5b8060015f3373ffffffffffffffffffffffffffffffffffffffff1673ffffffffffffffffffffffffffffffffffffffff1681526020019081526020015f206002015f82825461099b91906118db565b92505081905550600260405180606001604052803373ffffffffffffffffffffffffffffffffffffffff16815260200183815260200160011515815250908060018154018082558091505060019003905f5260205f2090600302015f909190919091505f820151815f015f6101000a81548173ffffffffffffffffffffffffffffffffffffffff021916908373ffffffffffffffffffffffffffffffffffffffff160217905550602082015181600101556040820151816002015f6101000a81548160ff02191690831515021790555050503373ffffffffffffffffffffffffffffffffffffffff167f2acdd9c40c46f544fef416ab316cdd35f98f9cc1d743129d461cc64bf92568bb826001600280549050610ab891906118db565b604051610ac692919061190e565b60405180910390a250565b60015f3373ffffffffffffffffffffffffffffffffffffffff1673ffffffffffffffffffffffffffffffffffffffff1681526020019081526020015f206003015f9054906101000a900460ff16610b5d576040517f08c379a0000000000000000000000000000000000000000000000000000000008152600401610b549061182f565b60405180910390fd5b6002805490508110610ba4576040517f08c379a0000000000000000000000000000000000000000000000000000000008152600401610b9b9061197f565b60405180910390fd5b60028181548110610bb857610bb761174b565b5b905f5260205f2090600302016002015f9054906101000a900460ff16610c13576040517f08c379a0000000000000000000000000000000000000000000000000000000008152600401610c0a906119e7565b60405180910390fd5b5f60028281548110610c2857610c2761174b565b5b905f5260205f2090600302019050806001015460015f3373ffffffffffffffffffffffffffffffffffffffff1673ffffffffffffffffffffffffffffffffffffffff1681526020019081526020015f206002015f828254610c8991906116a2565b925050819055505f816002015f6101000a81548160ff021916908315150217905550805f015f9054906101000a900473ffffffffffffffffffffffffffffffffffffffff1673ffffffffffffffffffffffffffffffffffffffff163373ffffffffffffffffffffffffffffffffffffffff167fefe1757e4d01417c4031b940f8bdd3abd57cfbaa3f11e9b613710eb08099a8a48360010154604051610d2e91906116d5565b60405180910390a35050565b5f8054906101000a900473ffffffffffffffffffffffffffffffffffffffff1673ffffffffffffffffffffffffffffffffffffffff163373ffffffffffffffffffffffffffffffffffffffff1614610dc7576040517f08c379a0000000000000000000000000000000000000000000000000000000008152600401610dbe906115ef565b60405180910390fd5b60015f8373ffffffffffffffffffffffffffffffffffffffff1673ffffffffffffffffffffffffffffffffffffffff1681526020019081526020015f206003015f9054906101000a900460ff1615610e54576040517f08c379a0000000000000000000000000000000000000000000000000000000008152600401610e4b90611a75565b60405180910390fd5b60405180608001604052808373ffffffffffffffffffffffffffffffffffffffff1681526020018281526020015f81526020016001151581525060015f8473ffffffffffffffffffffffffffffffffffffffff1673ffffffffffffffffffffffffffffffffffffffff1681526020019081526020015f205f820151815f015f6101000a81548173ffffffffffffffffffffffffffffffffffffffff021916908373ffffffffffffffffffffffffffffffffffffffff1602179055506020820151816001019081610f249190611c30565b50604082015181600201556060820151816003015f6101000a81548160ff0219169083151502179055509050508173ffffffffffffffffffffffffffffffffffffffff167f783e607e94efcb9adce3489c806008ddc378d784ae22a1f801458720054325a282604051610f979190611cff565b60405180910390a25050565b5f8054906101000a900473ffffffffffffffffffffffffffffffffffffffff1681565b60405180606001604052805f73ffffffffffffffffffffffffffffffffffffffff1681526020015f81526020015f151581525090565b5f604051905090565b5f80fd5b5f80fd5b5f819050919050565b61101f8161100d565b8114611029575f80fd5b50565b5f8135905061103a81611016565b92915050565b5f6020828403121561105557611054611005565b5b5f6110628482850161102c565b91505092915050565b5f73ffffffffffffffffffffffffffffffffffffffff82169050919050565b5f6110948261106b565b9050919050565b6110a48161108a565b82525050565b6110b38161100d565b82525050565b5f8115159050919050565b6110cd816110b9565b82525050565b5f6060820190506110e65f83018661109b565b6110f360208301856110aa565b61110060408301846110c4565b949350505050565b6111118161108a565b811461111b575f80fd5b50565b5f8135905061112c81611108565b92915050565b5f806040838503121561114857611147611005565b5b5f6111558582860161111e565b92505060206111668582860161102c565b9150509250929050565b5f6020828403121561118557611184611005565b5b5f6111928482850161111e565b91505092915050565b5f81519050919050565b5f82825260208201905092915050565b5f5b838110156111d25780820151818401526020810190506111b7565b5f8484015250505050565b5f601f19601f8301169050919050565b5f6111f78261119b565b61120181856111a5565b93506112118185602086016111b5565b61121a816111dd565b840191505092915050565b5f6080820190506112385f83018761109b565b818103602083015261124a81866111ed565b905061125960408301856110aa565b61126660608301846110c4565b95945050505050565b5f6060820190508181035f83015261128781866111ed565b905061129660208301856110aa565b6112a360408301846110c4565b949350505050565b5f81519050919050565b5f82825260208201905092915050565b5f819050602082019050919050565b6112dd8161108a565b82525050565b6112ec8161100d565b82525050565b6112fb816110b9565b82525050565b606082015f8201516113155f8501826112d4565b50602082015161132860208501826112e3565b50604082015161133b60408501826112f2565b50505050565b5f61134c8383611301565b60608301905092915050565b5f602082019050919050565b5f61136e826112ab565b61137881856112b5565b9350611383836112c5565b805f5b838110156113b357815161139a8882611341565b97506113a583611358565b925050600181019050611386565b5085935050505092915050565b5f6020820190508181035f8301526113d88184611364565b905092915050565b5f80fd5b5f80fd5b7f4e487b71000000000000000000000000000000000000000000000000000000005f52604160045260245ffd5b61141e826111dd565b810181811067ffffffffffffffff8211171561143d5761143c6113e8565b5b80604052505050565b5f61144f610ffc565b905061145b8282611415565b919050565b5f67ffffffffffffffff82111561147a576114796113e8565b5b611483826111dd565b9050602081019050919050565b828183375f83830152505050565b5f6114b06114ab84611460565b611446565b9050828152602081018484840111156114cc576114cb6113e4565b5b6114d7848285611490565b509392505050565b5f82601f8301126114f3576114f26113e0565b5b813561150384826020860161149e565b91505092915050565b5f806040838503121561152257611521611005565b5b5f61152f8582860161111e565b925050602083013567ffffffffffffffff8111156115505761154f611009565b5b61155c858286016114df565b9150509250929050565b5f6020820190506115795f83018461109b565b92915050565b7f4f6e6c792061646d696e2063616e20706572666f726d207468697320616374695f8201527f6f6e000000000000000000000000000000000000000000000000000000000000602082015250565b5f6115d96022836111a5565b91506115e48261157f565b604082019050919050565b5f6020820190508181035f830152611606816115cd565b9050919050565b7f4f7267616e697a6174696f6e206973206e6f74207265676973746572656400005f82015250565b5f611641601e836111a5565b915061164c8261160d565b602082019050919050565b5f6020820190508181035f83015261166e81611635565b9050919050565b7f4e487b71000000000000000000000000000000000000000000000000000000005f52601160045260245ffd5b5f6116ac8261100d565b91506116b78361100d565b92508282019050808211156116cf576116ce611675565b5b92915050565b5f6020820190506116e85f8301846110aa565b92915050565b7f4e487b71000000000000000000000000000000000000000000000000000000005f52602260045260245ffd5b5f600282049050600182168061173257607f821691505b602082108103611745576117446116ee565b5b50919050565b7f4e487b71000000000000000000000000000000000000000000000000000000005f52603260045260245ffd5b5f6117828261100d565b91507fffffffffffffffffffffffffffffffffffffffffffffffffffffffffffffffff82036117b4576117b3611675565b5b600182019050919050565b7f4f6e6c792072656769737465726564206f7267616e697a6174696f6e732063615f8201527f6e20706572666f726d207468697320616374696f6e0000000000000000000000602082015250565b5f6118196035836111a5565b9150611824826117bf565b604082019050919050565b5f6020820190508181035f8301526118468161180d565b9050919050565b7f4e6f7420656e6f75676820636172626f6e206372656469747320746f206f66665f8201527f6572000000000000000000000000000000000000000000000000000000000000602082015250565b5f6118a76022836111a5565b91506118b28261184d565b604082019050919050565b5f6020820190508181035f8301526118d48161189b565b9050919050565b5f6118e58261100d565b91506118f08361100d565b925082820390508181111561190857611907611675565b5b92915050565b5f6040820190506119215f8301856110aa565b61192e60208301846110aa565b9392505050565b7f496e76616c6964206f66666572204944000000000000000000000000000000005f82015250565b5f6119696010836111a5565b915061197482611935565b602082019050919050565b5f6020820190508181035f8301526119968161195d565b9050919050565b7f4f66666572206973206e6f7420617661696c61626c65000000000000000000005f82015250565b5f6119d16016836111a5565b91506119dc8261199d565b602082019050919050565b5f6020820190508181035f8301526119fe816119c5565b9050919050565b7f4f7267616e697a6174696f6e20697320616c72656164792072656769737465725f8201527f6564000000000000000000000000000000000000000000000000000000000000602082015250565b5f611a5f6022836111a5565b9150611a6a82611a05565b604082019050919050565b5f6020820190508181035f830152611a8c81611a53565b9050919050565b5f819050815f5260205f209050919050565b5f6020601f8301049050919050565b5f82821b905092915050565b5f60088302611aef7fffffffffffffffffffffffffffffffffffffffffffffffffffffffffffffffff82611ab4565b611af98683611ab4565b95508019841693508086168417925050509392505050565b5f819050919050565b5f611b34611b2f611b2a8461100d565b611b11565b61100d565b9050919050565b5f819050919050565b611b4d83611b1a565b611b61611b5982611b3b565b848454611ac0565b825550505050565b5f90565b611b75611b69565b611b80818484611b44565b505050565b5b81811015611ba357611b985f82611b6d565b600181019050611b86565b5050565b601f821115611be857611bb981611a93565b611bc284611aa5565b81016020851015611bd1578190505b611be5611bdd85611aa5565b830182611b85565b50505b505050565b5f82821c905092915050565b5f611c085f1984600802611bed565b1980831691505092915050565b5f611c208383611bf9565b9150826002028217905092915050565b611c398261119b565b67ffffffffffffffff811115611c5257611c516113e8565b5b611c5c825461171b565b611c67828285611ba7565b5f60209050601f831160018114611c98575f8415611c86578287015190505b611c908582611c15565b865550611cf7565b601f198416611ca686611a93565b5f5b82811015611ccd57848901518255600182019150602085019450602081019050611ca8565b86831015611cea5784890151611ce6601f891682611bf9565b8355505b6001600288020188555050505b505050505050565b5f6020820190508181035f830152611d1781846111ed565b90509291505056fea26469706673582212206f227ad18379f1abc871b590ce626b3bc2dcc390880725936f0cfc66459531fa64736f6c63430008150033",
  "immutableReferences": {},
  "source": "// SPDX-License-Identifier: MIT\r\npragma solidity ^0.8.0;\r\n\r\ncontract CarbonCreditMarketplace {\r\n    address public admin;\r\n\r\n    struct Organization {\r\n        address orgAddress;\r\n        string name;\r\n        uint256 carbonCredits;\r\n        bool isRegistered;\r\n    }\r\n\r\n    struct CreditOffer {\r\n        address seller;\r\n        uint256 amount;\r\n        bool isAvailable;\r\n    }\r\n\r\n    mapping(address => Organization) public organizations;\r\n    CreditOffer[] public creditOffers;\r\n\r\n    event OrganizationRegistered(address indexed orgAddress, string name);\r\n    event CarbonCreditsAssigned(address indexed orgAddress, uint256 amount);\r\n    event CarbonCreditsOffered(address indexed seller, uint256 amount, uint256 offerId);\r\n    event CarbonCreditsBought(address indexed buyer, address indexed seller, uint256 amount);\r\n\r\n    modifier onlyAdmin() {\r\n        require(msg.sender == admin, \"Only admin can perform this action\");\r\n        _;\r\n    }\r\n\r\n    modifier onlyRegisteredOrganization() {\r\n        require(organizations[msg.sender].isRegistered, \"Only registered organizations can perform this action\");\r\n        _;\r\n    }\r\n\r\n    constructor() {\r\n        admin = msg.sender;\r\n    }\r\n\r\n    function registerOrganization(address _orgAddress, string memory _name) public onlyAdmin {\r\n        require(!organizations[_orgAddress].isRegistered, \"Organization is already registered\");\r\n\r\n        organizations[_orgAddress] = Organization({\r\n            orgAddress: _orgAddress,\r\n            name: _name,\r\n            carbonCredits: 0,\r\n            isRegistered: true\r\n        });\r\n\r\n        emit OrganizationRegistered(_orgAddress, _name);\r\n    }\r\n\r\n    function assignCarbonCredits(address _orgAddress, uint256 _amount) public onlyAdmin {\r\n        require(organizations[_orgAddress].isRegistered, \"Organization is not registered\");\r\n\r\n        organizations[_orgAddress].carbonCredits += _amount;\r\n\r\n        emit CarbonCreditsAssigned(_orgAddress, _amount);\r\n    }\r\n\r\n    function offerCarbonCredits(uint256 _amount) public onlyRegisteredOrganization {\r\n        require(organizations[msg.sender].carbonCredits >= _amount, \"Not enough carbon credits to offer\");\r\n\r\n        organizations[msg.sender].carbonCredits -= _amount;\r\n        creditOffers.push(CreditOffer({\r\n            seller: msg.sender,\r\n            amount: _amount,\r\n            isAvailable: true\r\n        }));\r\n\r\n        emit CarbonCreditsOffered(msg.sender, _amount, creditOffers.length - 1);\r\n    }\r\n\r\n    function buyCarbonCredits(uint256 _offerId) public onlyRegisteredOrganization {\r\n        require(_offerId < creditOffers.length, \"Invalid offer ID\");\r\n        require(creditOffers[_offerId].isAvailable, \"Offer is not available\");\r\n\r\n        CreditOffer storage offer = creditOffers[_offerId];\r\n\r\n        organizations[msg.sender].carbonCredits += offer.amount;\r\n        offer.isAvailable = false;\r\n\r\n        emit CarbonCreditsBought(msg.sender, offer.seller, offer.amount);\r\n    }\r\n\r\n    function getOrganizationDetails(address _orgAddress) public view returns (string memory name, uint256 carbonCredits, bool isRegistered) {\r\n        Organization memory org = organizations[_orgAddress];\r\n        return (org.name, org.carbonCredits, org.isRegistered);\r\n    }\r\n\r\n    function getAvailableOffers() public view returns (CreditOffer[] memory) {\r\n        uint256 availableCount = 0;\r\n        for (uint256 i = 0; i < creditOffers.length; i++) {\r\n            if (creditOffers[i].isAvailable) {\r\n                availableCount++;\r\n            }\r\n        }\r\n\r\n        CreditOffer[] memory availableOffers = new CreditOffer[](availableCount);\r\n        uint256 index = 0;\r\n        for (uint256 i = 0; i < creditOffers.length; i++) {\r\n            if (creditOffers[i].isAvailable) {\r\n                availableOffers[index] = creditOffers[i];\r\n                index++;\r\n            }\r\n        }\r\n\r\n        return availableOffers;\r\n    }\r\n}\r\n",
  "sourcePath": "C:\\Users\\jugan\\Desktop\\Hack4Bengal\\contracts\\CarbonCreditMarketplace.sol",
  "compiler": {
    "name": "solc",
    "version": "0.8.21+commit.d9974bed.Emscripten.clang"
  },
  "schemaVersion": "3.4.16",
  "updatedAt": "2024-06-28T19:16:45.835Z",
  "devdoc": {
    "kind": "dev",
    "methods": {},
    "version": 1
  },
  "userdoc": {
    "kind": "user",
    "methods": {},
    "version": 1
  }
}